:03000000080000F5
:030001000806806E
:03000200008180FA
:0300030000820078
:03000400008280F7
:0300050000830075
:03000600008380F4
:0300070000810075
:03000800008480F1
:030009000085006F
:03000A00008580EE
:03000B000086006C
:03000C000084006D
:03000D00000800E8
:03000E00008680E9
:03000F0000088066
:0300100000A680C7
:030011000806805E
:03001200000900E2
:030013000806805C
:0300140000098060
:03001500008680E2
:0300160008068059
:03001700000B6873
:0300180000CCE831
:03001900000AE8F2
:03001A00008CE86F
:03001B00000B884F
:03001C0000EC886D
:03001D00000A08CE
:03001E0000AC88AB
:03001F0008068050
:0300200000CE000F
:0300210000CD808F
:0300220000E700F4
:03002300000C00CE
:03002400020CE0EB
:03002500020CE0EA
:03002600000D00CA
:0300270000068050
:030028000006804F
:03002900060E8040
:03002A000610803D
:03002B0000A680AC
:03002C00008680CB
:03002D0008068042
:03002E0000CE0001
:03002F0000CD8081
:0300300000E700E6
:03003100000C00C0
:03003200030CE0DC
:03003300030CE0DB
:03003400000D00BC
:0300350000068042
:0300360000068041
:03003700070E8031
:030038000710802E
:0300390000A6809E
:03003A00008680BD
:03003B0008068034
:03003C0000115858
:03003D000006D8E2
:03003E0008068031
:03003F0000116845
:030040000087E84E
:03004100040FE8C1
:030042000410E8BF
:0300430000116841
:0300440000A7E82A
:030045000806802A
:03004600040E881D
:030047000410881A
:03004800040F683A
:030049000410E8B8
:03004A0000A6808D
:03004B00040FE8B7
:03004C000410E8B5
:03004D0004100894
:03004E0004108813
:03004F000011009D
:0300500000C68067
:03005100008680A6
:0300520000E68045
:030053000806801C
:03005400000000A9
:03005500000000A8
:0300560000A00007
:0300570000800026
:030058000800009D
:0300590000008024
:03005A0000008023
:03005B0000008022
:03005C0000008021
:03005D0000A08080
:03005E000080809F
:03005F0008008016
:030060000091808C
:0300610000868096
:0300620000A68075
:030063000806800C
:03006400040F087E
:030065000806800A
:0300660000000097
:0300670000000096
:0300680000000095
:0300690000000094
:03006A0000000093
:03006B0000000092
:03006C0000000091
:03006D0000000090
:03006E000000008F
:03006F000000008E
:030070000000008D
:030071000000008C
:030072000000008B
:030073000000008A
:0300740000000089
:0300750000000088
:0300760000000087
:0300770000000086
:0300780000000085
:0300790000000084
:03007A0000000083
:03007B0000000082
:03007C0000000081
:03007D0000000080
:03007E000000007F
:03007F000000007E
:00000001FF
